{
    "contractName": "TipJar",
    "abi": [
        {
            "inputs": [],
            "stateMutability": "nonpayable",
            "type": "constructor"
        },
        {
            "inputs": [],
            "name": "getBalance",
            "outputs": [
                {
                    "internalType": "uint256",
                    "name": "",
                    "type": "uint256"
                }
            ],
            "stateMutability": "view",
            "type": "function"
        },
        {
            "inputs": [],
            "name": "getOwner",
            "outputs": [
                {
                    "internalType": "address",
                    "name": "",
                    "type": "address"
                }
            ],
            "stateMutability": "view",
            "type": "function"
        },
        {
            "inputs": [],
            "name": "isContract",
            "outputs": [
                {
                    "internalType": "bool",
                    "name": "",
                    "type": "bool"
                }
            ],
            "stateMutability": "view",
            "type": "function"
        },
        {
            "inputs": [],
            "name": "isOwner",
            "outputs": [
                {
                    "internalType": "bool",
                    "name": "",
                    "type": "bool"
                }
            ],
            "stateMutability": "view",
            "type": "function"
        },
        {
            "inputs": [],
            "name": "own",
            "outputs": [
                {
                    "internalType": "address",
                    "name": "",
                    "type": "address"
                }
            ],
            "stateMutability": "view",
            "type": "function"
        },
        {
            "inputs": [],
            "name": "tip",
            "outputs": [],
            "stateMutability": "payable",
            "type": "function"
        },
        {
            "inputs": [],
            "name": "withdraw",
            "outputs": [],
            "stateMutability": "nonpayable",
            "type": "function"
        }
    ],
    "bytecode": "608080604052346026575f80546001600160a01b03191633179055610354908161002b8239f35b5f80fdfe6080806040526004361015610012575f80fd5b5f3560e01c90816312065fe0146102a1575080632755cd2d146101ef5780633ccfd60b146100de578063893d20e8146100915780638f32d59b146100b857806399cdee0e146100915763f7ec2f3514610069575f80fd5b3461008d575f36600319011261008d57602063ffffffff303b161515604051908152f35b5f80fd5b3461008d575f36600319011261008d575f546040516001600160a01b039091168152602090f35b3461008d575f36600319011261008d57602060018060a01b035f54163314604051908152f35b3461008d575f36600319011261008d575f546001600160a01b0316338190036101aa574715610165575f8080809347905af16101186102b9565b501561012057005b60405162461bcd60e51b815260206004820152601760248201527f5469704a61723a205769746864726177206661696c65640000000000000000006044820152606490fd5b60405162461bcd60e51b815260206004820152601e60248201527f5469704a61723a204e6f2062616c616e636520746f20776974686472617700006044820152606490fd5b60405162461bcd60e51b815260206004820152601f60248201527f5469704a61723a204f6e6c79206f776e65722063616e207769746864726177006044820152606490fd5b5f36600319011261008d573415610266575f8080803460018060a01b038254165af16102196102b9565b501561022157005b60405162461bcd60e51b815260206004820152601760248201527f5469704a61723a205472616e73666572206661696c65640000000000000000006044820152606490fd5b60405162461bcd60e51b8152602060048201526013602482015272151a5c12985c8e88139bc81d1a5c081cd95b9d606a1b6044820152606490fd5b3461008d575f36600319011261008d57602090478152f35b3d15610319573d9067ffffffffffffffff82116103055760405191601f8101601f19908116603f0116830167ffffffffffffffff8111848210176103055760405282523d5f602084013e565b634e487b7160e01b5f52604160045260245ffd5b60609056fea264697066735822122052b57f7f2b0c1d1d9889ed8e77be5e71e42f23a6582bb7b1b2ce0cae85a49ae764736f6c634300081c0033",
    "sourcePath": "d:/Source/uniswap/contracts/TipJar.sol",
    "compiler": {
        "name": "solc",
        "version": "0.8.28+commit.7893614a"
    },
    "functionHashes": {
        "getBalance()": "12065fe0",
        "getOwner()": "893d20e8",
        "isContract()": "f7ec2f35",
        "isOwner()": "8f32d59b",
        "own()": "99cdee0e",
        "tip()": "2755cd2d",
        "withdraw()": "3ccfd60b"
    },
    "gasEstimates": {
        "creation": {
            "codeDepositCost": "170400",
            "executionCost": "24454",
            "totalCost": "194854"
        },
        "external": {
            "getBalance()": "150",
            "getOwner()": "2345",
            "isContract()": "2896",
            "isOwner()": "2366",
            "own()": "2389",
            "tip()": "infinite",
            "withdraw()": "infinite"
        }
    }
}