{
    "contractName": "Counter",
    "abi": [
        {
            "inputs": [
                {
                    "internalType": "contract IPoolManager",
                    "name": "_poolManager",
                    "type": "address"
                }
            ],
            "stateMutability": "nonpayable",
            "type": "constructor"
        },
        {
            "inputs": [],
            "name": "HookNotImplemented",
            "type": "error"
        },
        {
            "inputs": [],
            "name": "InvalidPool",
            "type": "error"
        },
        {
            "inputs": [],
            "name": "NotPoolManager",
            "type": "error"
        },
        {
            "inputs": [],
            "name": "NotSelf",
            "type": "error"
        },
        {
            "inputs": [
                {
                    "internalType": "address",
                    "name": "sender",
                    "type": "address"
                },
                {
                    "components": [
                        {
                            "internalType": "Currency",
                            "name": "currency0",
                            "type": "address"
                        },
                        {
                            "internalType": "Currency",
                            "name": "currency1",
                            "type": "address"
                        },
                        {
                            "internalType": "uint24",
                            "name": "fee",
                            "type": "uint24"
                        },
                        {
                            "internalType": "int24",
                            "name": "tickSpacing",
                            "type": "int24"
                        },
                        {
                            "internalType": "contract IHooks",
                            "name": "hooks",
                            "type": "address"
                        }
                    ],
                    "internalType": "struct PoolKey",
                    "name": "key",
                    "type": "tuple"
                },
                {
                    "components": [
                        {
                            "internalType": "int24",
                            "name": "tickLower",
                            "type": "int24"
                        },
                        {
                            "internalType": "int24",
                            "name": "tickUpper",
                            "type": "int24"
                        },
                        {
                            "internalType": "int256",
                            "name": "liquidityDelta",
                            "type": "int256"
                        },
                        {
                            "internalType": "bytes32",
                            "name": "salt",
                            "type": "bytes32"
                        }
                    ],
                    "internalType": "struct ModifyLiquidityParams",
                    "name": "params",
                    "type": "tuple"
                },
                {
                    "internalType": "BalanceDelta",
                    "name": "delta0",
                    "type": "int256"
                },
                {
                    "internalType": "BalanceDelta",
                    "name": "delta1",
                    "type": "int256"
                },
                {
                    "internalType": "bytes",
                    "name": "hookData",
                    "type": "bytes"
                }
            ],
            "name": "afterAddLiquidity",
            "outputs": [
                {
                    "internalType": "bytes4",
                    "name": "",
                    "type": "bytes4"
                },
                {
                    "internalType": "BalanceDelta",
                    "name": "",
                    "type": "int256"
                }
            ],
            "stateMutability": "nonpayable",
            "type": "function"
        },
        {
            "inputs": [
                {
                    "internalType": "address",
                    "name": "sender",
                    "type": "address"
                },
                {
                    "components": [
                        {
                            "internalType": "Currency",
                            "name": "currency0",
                            "type": "address"
                        },
                        {
                            "internalType": "Currency",
                            "name": "currency1",
                            "type": "address"
                        },
                        {
                            "internalType": "uint24",
                            "name": "fee",
                            "type": "uint24"
                        },
                        {
                            "internalType": "int24",
                            "name": "tickSpacing",
                            "type": "int24"
                        },
                        {
                            "internalType": "contract IHooks",
                            "name": "hooks",
                            "type": "address"
                        }
                    ],
                    "internalType": "struct PoolKey",
                    "name": "key",
                    "type": "tuple"
                },
                {
                    "internalType": "uint256",
                    "name": "amount0",
                    "type": "uint256"
                },
                {
                    "internalType": "uint256",
                    "name": "amount1",
                    "type": "uint256"
                },
                {
                    "internalType": "bytes",
                    "name": "hookData",
                    "type": "bytes"
                }
            ],
            "name": "afterDonate",
            "outputs": [
                {
                    "internalType": "bytes4",
                    "name": "",
                    "type": "bytes4"
                }
            ],
            "stateMutability": "nonpayable",
            "type": "function"
        },
        {
            "inputs": [
                {
                    "internalType": "address",
                    "name": "sender",
                    "type": "address"
                },
                {
                    "components": [
                        {
                            "internalType": "Currency",
                            "name": "currency0",
                            "type": "address"
                        },
                        {
                            "internalType": "Currency",
                            "name": "currency1",
                            "type": "address"
                        },
                        {
                            "internalType": "uint24",
                            "name": "fee",
                            "type": "uint24"
                        },
                        {
                            "internalType": "int24",
                            "name": "tickSpacing",
                            "type": "int24"
                        },
                        {
                            "internalType": "contract IHooks",
                            "name": "hooks",
                            "type": "address"
                        }
                    ],
                    "internalType": "struct PoolKey",
                    "name": "key",
                    "type": "tuple"
                },
                {
                    "internalType": "uint160",
                    "name": "sqrtPriceX96",
                    "type": "uint160"
                },
                {
                    "internalType": "int24",
                    "name": "tick",
                    "type": "int24"
                }
            ],
            "name": "afterInitialize",
            "outputs": [
                {
                    "internalType": "bytes4",
                    "name": "",
                    "type": "bytes4"
                }
            ],
            "stateMutability": "nonpayable",
            "type": "function"
        },
        {
            "inputs": [
                {
                    "internalType": "address",
                    "name": "sender",
                    "type": "address"
                },
                {
                    "components": [
                        {
                            "internalType": "Currency",
                            "name": "currency0",
                            "type": "address"
                        },
                        {
                            "internalType": "Currency",
                            "name": "currency1",
                            "type": "address"
                        },
                        {
                            "internalType": "uint24",
                            "name": "fee",
                            "type": "uint24"
                        },
                        {
                            "internalType": "int24",
                            "name": "tickSpacing",
                            "type": "int24"
                        },
                        {
                            "internalType": "contract IHooks",
                            "name": "hooks",
                            "type": "address"
                        }
                    ],
                    "internalType": "struct PoolKey",
                    "name": "key",
                    "type": "tuple"
                },
                {
                    "components": [
                        {
                            "internalType": "int24",
                            "name": "tickLower",
                            "type": "int24"
                        },
                        {
                            "internalType": "int24",
                            "name": "tickUpper",
                            "type": "int24"
                        },
                        {
                            "internalType": "int256",
                            "name": "liquidityDelta",
                            "type": "int256"
                        },
                        {
                            "internalType": "bytes32",
                            "name": "salt",
                            "type": "bytes32"
                        }
                    ],
                    "internalType": "struct ModifyLiquidityParams",
                    "name": "params",
                    "type": "tuple"
                },
                {
                    "internalType": "BalanceDelta",
                    "name": "delta0",
                    "type": "int256"
                },
                {
                    "internalType": "BalanceDelta",
                    "name": "delta1",
                    "type": "int256"
                },
                {
                    "internalType": "bytes",
                    "name": "hookData",
                    "type": "bytes"
                }
            ],
            "name": "afterRemoveLiquidity",
            "outputs": [
                {
                    "internalType": "bytes4",
                    "name": "",
                    "type": "bytes4"
                },
                {
                    "internalType": "BalanceDelta",
                    "name": "",
                    "type": "int256"
                }
            ],
            "stateMutability": "nonpayable",
            "type": "function"
        },
        {
            "inputs": [
                {
                    "internalType": "address",
                    "name": "sender",
                    "type": "address"
                },
                {
                    "components": [
                        {
                            "internalType": "Currency",
                            "name": "currency0",
                            "type": "address"
                        },
                        {
                            "internalType": "Currency",
                            "name": "currency1",
                            "type": "address"
                        },
                        {
                            "internalType": "uint24",
                            "name": "fee",
                            "type": "uint24"
                        },
                        {
                            "internalType": "int24",
                            "name": "tickSpacing",
                            "type": "int24"
                        },
                        {
                            "internalType": "contract IHooks",
                            "name": "hooks",
                            "type": "address"
                        }
                    ],
                    "internalType": "struct PoolKey",
                    "name": "key",
                    "type": "tuple"
                },
                {
                    "components": [
                        {
                            "internalType": "bool",
                            "name": "zeroForOne",
                            "type": "bool"
                        },
                        {
                            "internalType": "int256",
                            "name": "amountSpecified",
                            "type": "int256"
                        },
                        {
                            "internalType": "uint160",
                            "name": "sqrtPriceLimitX96",
                            "type": "uint160"
                        }
                    ],
                    "internalType": "struct SwapParams",
                    "name": "params",
                    "type": "tuple"
                },
                {
                    "internalType": "BalanceDelta",
                    "name": "delta",
                    "type": "int256"
                },
                {
                    "internalType": "bytes",
                    "name": "hookData",
                    "type": "bytes"
                }
            ],
            "name": "afterSwap",
            "outputs": [
                {
                    "internalType": "bytes4",
                    "name": "",
                    "type": "bytes4"
                },
                {
                    "internalType": "int128",
                    "name": "",
                    "type": "int128"
                }
            ],
            "stateMutability": "nonpayable",
            "type": "function"
        },
        {
            "inputs": [
                {
                    "internalType": "PoolId",
                    "name": "",
                    "type": "bytes32"
                }
            ],
            "name": "afterSwapCount",
            "outputs": [
                {
                    "internalType": "uint256",
                    "name": "count",
                    "type": "uint256"
                }
            ],
            "stateMutability": "view",
            "type": "function"
        },
        {
            "inputs": [
                {
                    "internalType": "address",
                    "name": "sender",
                    "type": "address"
                },
                {
                    "components": [
                        {
                            "internalType": "Currency",
                            "name": "currency0",
                            "type": "address"
                        },
                        {
                            "internalType": "Currency",
                            "name": "currency1",
                            "type": "address"
                        },
                        {
                            "internalType": "uint24",
                            "name": "fee",
                            "type": "uint24"
                        },
                        {
                            "internalType": "int24",
                            "name": "tickSpacing",
                            "type": "int24"
                        },
                        {
                            "internalType": "contract IHooks",
                            "name": "hooks",
                            "type": "address"
                        }
                    ],
                    "internalType": "struct PoolKey",
                    "name": "key",
                    "type": "tuple"
                },
                {
                    "components": [
                        {
                            "internalType": "int24",
                            "name": "tickLower",
                            "type": "int24"
                        },
                        {
                            "internalType": "int24",
                            "name": "tickUpper",
                            "type": "int24"
                        },
                        {
                            "internalType": "int256",
                            "name": "liquidityDelta",
                            "type": "int256"
                        },
                        {
                            "internalType": "bytes32",
                            "name": "salt",
                            "type": "bytes32"
                        }
                    ],
                    "internalType": "struct ModifyLiquidityParams",
                    "name": "params",
                    "type": "tuple"
                },
                {
                    "internalType": "bytes",
                    "name": "hookData",
                    "type": "bytes"
                }
            ],
            "name": "beforeAddLiquidity",
            "outputs": [
                {
                    "internalType": "bytes4",
                    "name": "",
                    "type": "bytes4"
                }
            ],
            "stateMutability": "nonpayable",
            "type": "function"
        },
        {
            "inputs": [
                {
                    "internalType": "PoolId",
                    "name": "",
                    "type": "bytes32"
                }
            ],
            "name": "beforeAddLiquidityCount",
            "outputs": [
                {
                    "internalType": "uint256",
                    "name": "count",
                    "type": "uint256"
                }
            ],
            "stateMutability": "view",
            "type": "function"
        },
        {
            "inputs": [
                {
                    "internalType": "address",
                    "name": "sender",
                    "type": "address"
                },
                {
                    "components": [
                        {
                            "internalType": "Currency",
                            "name": "currency0",
                            "type": "address"
                        },
                        {
                            "internalType": "Currency",
                            "name": "currency1",
                            "type": "address"
                        },
                        {
                            "internalType": "uint24",
                            "name": "fee",
                            "type": "uint24"
                        },
                        {
                            "internalType": "int24",
                            "name": "tickSpacing",
                            "type": "int24"
                        },
                        {
                            "internalType": "contract IHooks",
                            "name": "hooks",
                            "type": "address"
                        }
                    ],
                    "internalType": "struct PoolKey",
                    "name": "key",
                    "type": "tuple"
                },
                {
                    "internalType": "uint256",
                    "name": "amount0",
                    "type": "uint256"
                },
                {
                    "internalType": "uint256",
                    "name": "amount1",
                    "type": "uint256"
                },
                {
                    "internalType": "bytes",
                    "name": "hookData",
                    "type": "bytes"
                }
            ],
            "name": "beforeDonate",
            "outputs": [
                {
                    "internalType": "bytes4",
                    "name": "",
                    "type": "bytes4"
                }
            ],
            "stateMutability": "nonpayable",
            "type": "function"
        },
        {
            "inputs": [
                {
                    "internalType": "address",
                    "name": "sender",
                    "type": "address"
                },
                {
                    "components": [
                        {
                            "internalType": "Currency",
                            "name": "currency0",
                            "type": "address"
                        },
                        {
                            "internalType": "Currency",
                            "name": "currency1",
                            "type": "address"
                        },
                        {
                            "internalType": "uint24",
                            "name": "fee",
                            "type": "uint24"
                        },
                        {
                            "internalType": "int24",
                            "name": "tickSpacing",
                            "type": "int24"
                        },
                        {
                            "internalType": "contract IHooks",
                            "name": "hooks",
                            "type": "address"
                        }
                    ],
                    "internalType": "struct PoolKey",
                    "name": "key",
                    "type": "tuple"
                },
                {
                    "internalType": "uint160",
                    "name": "sqrtPriceX96",
                    "type": "uint160"
                }
            ],
            "name": "beforeInitialize",
            "outputs": [
                {
                    "internalType": "bytes4",
                    "name": "",
                    "type": "bytes4"
                }
            ],
            "stateMutability": "nonpayable",
            "type": "function"
        },
        {
            "inputs": [
                {
                    "internalType": "address",
                    "name": "sender",
                    "type": "address"
                },
                {
                    "components": [
                        {
                            "internalType": "Currency",
                            "name": "currency0",
                            "type": "address"
                        },
                        {
                            "internalType": "Currency",
                            "name": "currency1",
                            "type": "address"
                        },
                        {
                            "internalType": "uint24",
                            "name": "fee",
                            "type": "uint24"
                        },
                        {
                            "internalType": "int24",
                            "name": "tickSpacing",
                            "type": "int24"
                        },
                        {
                            "internalType": "contract IHooks",
                            "name": "hooks",
                            "type": "address"
                        }
                    ],
                    "internalType": "struct PoolKey",
                    "name": "key",
                    "type": "tuple"
                },
                {
                    "components": [
                        {
                            "internalType": "int24",
                            "name": "tickLower",
                            "type": "int24"
                        },
                        {
                            "internalType": "int24",
                            "name": "tickUpper",
                            "type": "int24"
                        },
                        {
                            "internalType": "int256",
                            "name": "liquidityDelta",
                            "type": "int256"
                        },
                        {
                            "internalType": "bytes32",
                            "name": "salt",
                            "type": "bytes32"
                        }
                    ],
                    "internalType": "struct ModifyLiquidityParams",
                    "name": "params",
                    "type": "tuple"
                },
                {
                    "internalType": "bytes",
                    "name": "hookData",
                    "type": "bytes"
                }
            ],
            "name": "beforeRemoveLiquidity",
            "outputs": [
                {
                    "internalType": "bytes4",
                    "name": "",
                    "type": "bytes4"
                }
            ],
            "stateMutability": "nonpayable",
            "type": "function"
        },
        {
            "inputs": [
                {
                    "internalType": "PoolId",
                    "name": "",
                    "type": "bytes32"
                }
            ],
            "name": "beforeRemoveLiquidityCount",
            "outputs": [
                {
                    "internalType": "uint256",
                    "name": "count",
                    "type": "uint256"
                }
            ],
            "stateMutability": "view",
            "type": "function"
        },
        {
            "inputs": [
                {
                    "internalType": "address",
                    "name": "sender",
                    "type": "address"
                },
                {
                    "components": [
                        {
                            "internalType": "Currency",
                            "name": "currency0",
                            "type": "address"
                        },
                        {
                            "internalType": "Currency",
                            "name": "currency1",
                            "type": "address"
                        },
                        {
                            "internalType": "uint24",
                            "name": "fee",
                            "type": "uint24"
                        },
                        {
                            "internalType": "int24",
                            "name": "tickSpacing",
                            "type": "int24"
                        },
                        {
                            "internalType": "contract IHooks",
                            "name": "hooks",
                            "type": "address"
                        }
                    ],
                    "internalType": "struct PoolKey",
                    "name": "key",
                    "type": "tuple"
                },
                {
                    "components": [
                        {
                            "internalType": "bool",
                            "name": "zeroForOne",
                            "type": "bool"
                        },
                        {
                            "internalType": "int256",
                            "name": "amountSpecified",
                            "type": "int256"
                        },
                        {
                            "internalType": "uint160",
                            "name": "sqrtPriceLimitX96",
                            "type": "uint160"
                        }
                    ],
                    "internalType": "struct SwapParams",
                    "name": "params",
                    "type": "tuple"
                },
                {
                    "internalType": "bytes",
                    "name": "hookData",
                    "type": "bytes"
                }
            ],
            "name": "beforeSwap",
            "outputs": [
                {
                    "internalType": "bytes4",
                    "name": "",
                    "type": "bytes4"
                },
                {
                    "internalType": "BeforeSwapDelta",
                    "name": "",
                    "type": "int256"
                },
                {
                    "internalType": "uint24",
                    "name": "",
                    "type": "uint24"
                }
            ],
            "stateMutability": "nonpayable",
            "type": "function"
        },
        {
            "inputs": [
                {
                    "internalType": "PoolId",
                    "name": "",
                    "type": "bytes32"
                }
            ],
            "name": "beforeSwapCount",
            "outputs": [
                {
                    "internalType": "uint256",
                    "name": "count",
                    "type": "uint256"
                }
            ],
            "stateMutability": "view",
            "type": "function"
        },
        {
            "inputs": [],
            "name": "getHookPermissions",
            "outputs": [
                {
                    "components": [
                        {
                            "internalType": "bool",
                            "name": "beforeInitialize",
                            "type": "bool"
                        },
                        {
                            "internalType": "bool",
                            "name": "afterInitialize",
                            "type": "bool"
                        },
                        {
                            "internalType": "bool",
                            "name": "beforeAddLiquidity",
                            "type": "bool"
                        },
                        {
                            "internalType": "bool",
                            "name": "afterAddLiquidity",
                            "type": "bool"
                        },
                        {
                            "internalType": "bool",
                            "name": "beforeRemoveLiquidity",
                            "type": "bool"
                        },
                        {
                            "internalType": "bool",
                            "name": "afterRemoveLiquidity",
                            "type": "bool"
                        },
                        {
                            "internalType": "bool",
                            "name": "beforeSwap",
                            "type": "bool"
                        },
                        {
                            "internalType": "bool",
                            "name": "afterSwap",
                            "type": "bool"
                        },
                        {
                            "internalType": "bool",
                            "name": "beforeDonate",
                            "type": "bool"
                        },
                        {
                            "internalType": "bool",
                            "name": "afterDonate",
                            "type": "bool"
                        },
                        {
                            "internalType": "bool",
                            "name": "beforeSwapReturnDelta",
                            "type": "bool"
                        },
                        {
                            "internalType": "bool",
                            "name": "afterSwapReturnDelta",
                            "type": "bool"
                        },
                        {
                            "internalType": "bool",
                            "name": "afterAddLiquidityReturnDelta",
                            "type": "bool"
                        },
                        {
                            "internalType": "bool",
                            "name": "afterRemoveLiquidityReturnDelta",
                            "type": "bool"
                        }
                    ],
                    "internalType": "struct Hooks.Permissions",
                    "name": "",
                    "type": "tuple"
                }
            ],
            "stateMutability": "pure",
            "type": "function"
        },
        {
            "inputs": [],
            "name": "poolManager",
            "outputs": [
                {
                    "internalType": "contract IPoolManager",
                    "name": "",
                    "type": "address"
                }
            ],
            "stateMutability": "view",
            "type": "function"
        }
    ],
    "bytecode": "60a06040523461028a57604051601f610d0238819003918201601f19168301916001600160401b0383118484101761028e5780849260209460405283398101031261028a57516001600160a01b038116810361028a576080525f6101a06100646102a2565b8281528260208201528260408201528260608201528260808201528260a08201528260c08201528260e0820152826101008201528261012082015282610140820152826101608201528261018082015201525f6101a06100c26102a2565b82815282602082015260016040820152826060820152600160808201528260a0820152600160c0820152600160e08201528261010082015282610120820152826101408201528261016082015282610180820152015261200030161580159061027d575b801561026c575b801561025f575b801561024e575b8015610241575b8015610231575b8015610221575b8015610215575b8015610209575b80156101fd575b80156101f1575b80156101e5575b80156101d9575b6101c657604051610a3f90816102c3823960805181818160dc01528181610162015281816101b401528181610419015281816104930152818161058f01528181610612015261068d0152f35b630732d7b560e51b5f523060045260245ffd5b5060013016151561017a565b50600230161515610173565b5060043016151561016c565b50600830161515610165565b5060103016151561015e565b50602030161515610157565b5060403016151560011415610150565b5060803016151560011415610149565b5061010030161515610142565b50610200301615156001141561013b565b5061040030161515610134565b50610800301615156001141561012d565b5061100030161515610126565b5f80fd5b634e487b7160e01b5f52604160045260245ffd5b604051906101c082016001600160401b0381118382101761028e5760405256fe60806040526004361015610011575f80fd5b5f3560e01c806321d0ee7014610677578063259982e5146105fc578063575e24b4146105375780635c338d321461050e5780636c2bbe7e146104805780636fe7e6eb146104d65780639f063efc14610480578063b47b2fb1146103c1578063b6a8b0fa146100c9578063c4e833ce14610261578063c693995714610237578063dacdbe771461020d578063db6a9451146101e3578063dc4c90d31461019f578063dc98354e146101315763e1b4af69146100c9575f80fd5b3461012d576100d73661083e565b5050507f00000000000000000000000000000000000000000000000000000000000000006001600160a01b03163303925061011e91505057630a85dc2960e01b5f5260045ffd5b63570c108560e11b5f5260045ffd5b5f80fd5b3461012d5760e036600319011261012d5761014a6106f2565b5060a036602319011261012d5761015f610818565b507f00000000000000000000000000000000000000000000000000000000000000006001600160a01b0316330361011e57630a85dc2960e01b5f5260045ffd5b3461012d575f36600319011261012d576040517f00000000000000000000000000000000000000000000000000000000000000006001600160a01b03168152602090f35b3461012d57602036600319011261012d576004355f526003602052602060405f2054604051908152f35b3461012d57602036600319011261012d576004355f526001602052602060405f2054604051908152f35b3461012d57602036600319011261012d576004355f526002602052602060405f2054604051908152f35b3461012d575f36600319011261012d575f6101a061027d610896565b8281528260208201528260408201528260608201528260808201528260a08201528260c08201528260e0820152826101008201528261012082015282610140820152826101608201528261018082015201526101c060206102dc610896565b5f8152818101905f82526040810160018152606082015f8152608083016001815260a084015f815260c085016001815260e0860190600182526101008701925f84526101208801945f86526101408901965f88526101608a01985f8a526101a06101808c019b5f8d52019b5f8d526040519d8e915f835251151591015251151560408d015251151560608c015251151560808b015251151560a08a015251151560c089015251151560e08801525115156101008701525115156101208601525115156101408501525115156101608401525115156101808301525115156101a0820152f35b3461012d5761016036600319011261012d576103db6106f2565b5060a036602319011261012d5760603660c319011261012d576101443567ffffffffffffffff811161012d5761041590369060040161071c565b50507f00000000000000000000000000000000000000000000000000000000000000006001600160a01b0316330361011e5760a0610452366108eb565b205f52600160205260405f2061046881546109e7565b90556040805163b47b2fb160e01b81525f6020820152f35b3461012d5761048e366107ae565b5050507f00000000000000000000000000000000000000000000000000000000000000006001600160a01b03163303935061011e9250505057630a85dc2960e01b5f5260045ffd5b3461012d5761010036600319011261012d576104f06106f2565b5060a036602319011261012d57610505610818565b5061015f61082e565b3461012d57602036600319011261012d576004355f525f602052602060405f2054604051908152f35b3461012d5761014036600319011261012d576105516106f2565b5060a036602319011261012d5760603660c319011261012d576101243567ffffffffffffffff811161012d5761058b90369060040161071c565b50507f00000000000000000000000000000000000000000000000000000000000000006001600160a01b0316330361011e5760a06105c8366108eb565b205f525f60205260405f206105dd81546109e7565b905560606040516315d7892d60e21b81525f60208201525f6040820152f35b3461012d5761060a3661074a565b5091925050507f00000000000000000000000000000000000000000000000000000000000000006001600160a01b0316330361011e5761064d60a091369061096d565b205f52600260205260405f2061066381546109e7565b905560405163259982e560e01b8152602090f35b3461012d576106853661074a565b5091925050507f00000000000000000000000000000000000000000000000000000000000000006001600160a01b0316330361011e576106c860a091369061096d565b205f52600360205260405f206106de81546109e7565b905560405163021d0ee760e41b8152602090f35b600435906001600160a01b038216820361012d57565b35906001600160a01b038216820361012d57565b9181601f8401121561012d5782359167ffffffffffffffff831161012d576020838186019501011161012d57565b9061016060031983011261012d576004356001600160a01b038116810361012d579160a060231982011261012d57602491608060c31983011261012d5760c491610144359067ffffffffffffffff821161012d576107aa9160040161071c565b9091565b906101a060031983011261012d576004356001600160a01b038116810361012d579160a060231982011261012d57602491608060c31983011261012d5760c49161014435916101643591610184359067ffffffffffffffff821161012d576107aa9160040161071c565b60c435906001600160a01b038216820361012d57565b60e435908160020b820361012d57565b61012060031982011261012d576004356001600160a01b038116810361012d579160a060231983011261012d5760249160c4359160e43591610104359067ffffffffffffffff821161012d576107aa9160040161071c565b604051906101c0820182811067ffffffffffffffff8211176108b757604052565b634e487b7160e01b5f52604160045260245ffd5b6040519060a0820182811067ffffffffffffffff8211176108b757604052565b60a090602319011261012d576108ff6108cb565b906024356001600160a01b038116810361012d5782526044356001600160a01b038116810361012d57602083015260643562ffffff8116810361012d5760408301526084358060020b810361012d57606083015260a4356001600160a01b038116810361012d576080830152565b91908260a091031261012d576109816108cb565b9161098b81610708565b835261099960208201610708565b6020840152604081013562ffffff8116810361012d5760408401526060810135908160020b820361012d576060840191909152608001356001600160a01b038116810361012d576080830152565b5f1981146109f55760010190565b634e487b7160e01b5f52601160045260245ffdfea2646970667358221220d511e79e03e584a0467c478d56fa39ccd4dff464d743513790c6a3016072694d64736f6c634300081e0033",
    "sourcePath": "d:/Source/uniswap/src/Counter.sol",
    "compiler": {
        "name": "solc",
        "version": "0.8.30+commit.73712a01"
    },
    "functionHashes": {
        "afterAddLiquidity(address,(address,address,uint24,int24,address),(int24,int24,int256,bytes32),int256,int256,bytes)": "9f063efc",
        "afterDonate(address,(address,address,uint24,int24,address),uint256,uint256,bytes)": "e1b4af69",
        "afterInitialize(address,(address,address,uint24,int24,address),uint160,int24)": "6fe7e6eb",
        "afterRemoveLiquidity(address,(address,address,uint24,int24,address),(int24,int24,int256,bytes32),int256,int256,bytes)": "6c2bbe7e",
        "afterSwap(address,(address,address,uint24,int24,address),(bool,int256,uint160),int256,bytes)": "b47b2fb1",
        "afterSwapCount(bytes32)": "dacdbe77",
        "beforeAddLiquidity(address,(address,address,uint24,int24,address),(int24,int24,int256,bytes32),bytes)": "259982e5",
        "beforeAddLiquidityCount(bytes32)": "c6939957",
        "beforeDonate(address,(address,address,uint24,int24,address),uint256,uint256,bytes)": "b6a8b0fa",
        "beforeInitialize(address,(address,address,uint24,int24,address),uint160)": "dc98354e",
        "beforeRemoveLiquidity(address,(address,address,uint24,int24,address),(int24,int24,int256,bytes32),bytes)": "21d0ee70",
        "beforeRemoveLiquidityCount(bytes32)": "db6a9451",
        "beforeSwap(address,(address,address,uint24,int24,address),(bool,int256,uint160),bytes)": "575e24b4",
        "beforeSwapCount(bytes32)": "5c338d32",
        "getHookPermissions()": "c4e833ce",
        "poolManager()": "dc4c90d3"
    },
    "gasEstimates": {
        "creation": {
            "codeDepositCost": "524600",
            "executionCost": "infinite",
            "totalCost": "infinite"
        },
        "external": {
            "afterAddLiquidity(address,(address,address,uint24,int24,address),(int24,int24,int256,bytes32),int256,int256,bytes)": "infinite",
            "afterDonate(address,(address,address,uint24,int24,address),uint256,uint256,bytes)": "infinite",
            "afterInitialize(address,(address,address,uint24,int24,address),uint160,int24)": "infinite",
            "afterRemoveLiquidity(address,(address,address,uint24,int24,address),(int24,int24,int256,bytes32),int256,int256,bytes)": "infinite",
            "afterSwap(address,(address,address,uint24,int24,address),(bool,int256,uint160),int256,bytes)": "infinite",
            "afterSwapCount(bytes32)": "2555",
            "beforeAddLiquidity(address,(address,address,uint24,int24,address),(int24,int24,int256,bytes32),bytes)": "infinite",
            "beforeAddLiquidityCount(bytes32)": "2533",
            "beforeDonate(address,(address,address,uint24,int24,address),uint256,uint256,bytes)": "infinite",
            "beforeInitialize(address,(address,address,uint24,int24,address),uint160)": "infinite",
            "beforeRemoveLiquidity(address,(address,address,uint24,int24,address),(int24,int24,int256,bytes32),bytes)": "infinite",
            "beforeRemoveLiquidityCount(bytes32)": "2577",
            "beforeSwap(address,(address,address,uint24,int24,address),(bool,int256,uint160),bytes)": "infinite",
            "beforeSwapCount(bytes32)": "2378",
            "getHookPermissions()": "infinite",
            "poolManager()": "infinite"
        },
        "internal": {
            "_afterSwap(address,struct PoolKey calldata,struct SwapParams calldata,BalanceDelta,bytes calldata)": "infinite",
            "_beforeAddLiquidity(address,struct PoolKey calldata,struct ModifyLiquidityParams calldata,bytes calldata)": "infinite",
            "_beforeRemoveLiquidity(address,struct PoolKey calldata,struct ModifyLiquidityParams calldata,bytes calldata)": "infinite",
            "_beforeSwap(address,struct PoolKey calldata,struct SwapParams calldata,bytes calldata)": "infinite"
        }
    }
}